{
  "contractName": "Document008",
  "abi": [
    {
      "inputs": [
        {
          "internalType": "string",
          "name": "_details",
          "type": "string"
        }
      ],
      "name": "submitAgreement008",
      "outputs": [],
      "stateMutability": "nonpayable",
      "type": "function"
    },
    {
      "inputs": [],
      "name": "retrieveAgreement008",
      "outputs": [
        {
          "internalType": "bytes32",
          "name": "",
          "type": "bytes32"
        },
        {
          "internalType": "string",
          "name": "",
          "type": "string"
        }
      ],
      "stateMutability": "view",
      "type": "function",
      "constant": true
    },
    {
      "inputs": [],
      "name": "approveAgreement008",
      "outputs": [],
      "stateMutability": "nonpayable",
      "type": "function"
    },
    {
      "inputs": [],
      "name": "cancelAgreement008",
      "outputs": [],
      "stateMutability": "nonpayable",
      "type": "function"
    }
  ],
  "bytecode": "0x60806040526040518060200160405280600081525060009080519060200190610029929190610062565b50604051806020016040528060008152506002908051906020019061004f929190610062565b5034801561005c57600080fd5b50610165565b82805461006e90610134565b90600052602060002090601f01602090048101928261009057600085556100d7565b82601f106100a957805160ff19168380011785556100d7565b828001600101855582156100d7579182015b828111156100d65782518255916020019190600101906100bb565b5b5090506100e491906100e8565b5090565b5b808211156101015760008160009055506001016100e9565b5090565b7f4e487b7100000000000000000000000000000000000000000000000000000000600052602260045260246000fd5b6000600282049050600182168061014c57607f821691505b60208210810361015f5761015e610105565b5b50919050565b610620806101746000396000f3fe608060405234801561001057600080fd5b506004361061004c5760003560e01c80634bb2646c146100515780636c4058f51461006d5780637ab13c0214610077578063baefebeb14610096575b600080fd5b61006b6004803603810190610066919061041d565b6100a0565b005b6100756100e7565b005b61007f610135565b60405161008d929190610507565b60405180910390f35b61009e6101d2565b005b80600090805190602001906100b6929190610220565b50806040516020016100c89190610573565b6040516020818303038152906040528051906020012060018190555050565b6040518060400160405280600981526020017f63616e63656c6c6564000000000000000000000000000000000000000000000081525060029080519060200190610132929190610220565b50565b60006060600154600080805461014a906105b9565b80601f0160208091040260200160405190810160405280929190818152602001828054610176906105b9565b80156101c35780601f10610198576101008083540402835291602001916101c3565b820191906000526020600020905b8154815290600101906020018083116101a657829003601f168201915b50505050509050915091509091565b6040518060400160405280600881526020017f617070726f7665640000000000000000000000000000000000000000000000008152506002908051906020019061021d929190610220565b50565b82805461022c906105b9565b90600052602060002090601f01602090048101928261024e5760008555610295565b82601f1061026757805160ff1916838001178555610295565b82800160010185558215610295579182015b82811115610294578251825591602001919060010190610279565b5b5090506102a291906102a6565b5090565b5b808211156102bf5760008160009055506001016102a7565b5090565b6000604051905090565b600080fd5b600080fd5b600080fd5b600080fd5b6000601f19601f8301169050919050565b7f4e487b7100000000000000000000000000000000000000000000000000000000600052604160045260246000fd5b61032a826102e1565b810181811067ffffffffffffffff82111715610349576103486102f2565b5b80604052505050565b600061035c6102c3565b90506103688282610321565b919050565b600067ffffffffffffffff821115610388576103876102f2565b5b610391826102e1565b9050602081019050919050565b82818337600083830152505050565b60006103c06103bb8461036d565b610352565b9050828152602081018484840111156103dc576103db6102dc565b5b6103e784828561039e565b509392505050565b600082601f830112610404576104036102d7565b5b81356104148482602086016103ad565b91505092915050565b600060208284031215610433576104326102cd565b5b600082013567ffffffffffffffff811115610451576104506102d2565b5b61045d848285016103ef565b91505092915050565b6000819050919050565b61047981610466565b82525050565b600081519050919050565b600082825260208201905092915050565b60005b838110156104b957808201518184015260208101905061049e565b838111156104c8576000848401525b50505050565b60006104d98261047f565b6104e3818561048a565b93506104f381856020860161049b565b6104fc816102e1565b840191505092915050565b600060408201905061051c6000830185610470565b818103602083015261052e81846104ce565b90509392505050565b600081905092915050565b600061054d8261047f565b6105578185610537565b935061056781856020860161049b565b80840191505092915050565b600061057f8284610542565b915081905092915050565b7f4e487b7100000000000000000000000000000000000000000000000000000000600052602260045260246000fd5b600060028204905060018216806105d157607f821691505b6020821081036105e4576105e361058a565b5b5091905056fea26469706673582212209f5992646dc68d65827650326b93167f065a9502e6b3a47c0761ec5744152ed964736f6c634300080d0033",
  "immutableReferences": {},
  "source": "//SPDX-License-Identifier: Dalhousie\n\npragma solidity >=0.7.0 <0.9.0;\n\ncontract Document008 {\n    string details = \"\"; //details of the agreement\n\n    bytes32 hashCode; //hashcode of the details of the agreement\n\n    string status = \"\"; //accepted or rejected\n\n    function submitAgreement008(string memory _details) public {\n        details = _details; //set the details of the agreement\n        hashCode = keccak256(abi.encodePacked(_details)); //hashing using keccak256\n    }\n\n    function retrieveAgreement008()\n        public\n        view\n        returns (\n            //returns the details and its hash\n            bytes32,\n            string memory\n        )\n    {\n        return (hashCode, details);\n    }\n\n    function approveAgreement008()\n        public\n    //changes the status of document to approved\n    {\n        status = \"approved\";\n    }\n\n    function cancelAgreement008()\n        public\n    //changes the status of document to cancelled\n    {\n        status = \"cancelled\";\n    }\n}\n",
  "sourcePath": "/Users/amansinghbhandari/Library/Mobile Documents/com~apple~CloudDocs/assignments-summer/6313-Blockchain/assignment2b/Notary/contracts/Document008.sol",
  "compiler": {
    "name": "solc",
    "version": "0.8.13+commit.abaa5c0e.Emscripten.clang"
  },
  "schemaVersion": "3.4.6",
  "updatedAt": "2022-05-21T17:57:16.050Z",
  "networkType": "ethereum",
  "devdoc": {
    "kind": "dev",
    "methods": {},
    "version": 1
  },
  "userdoc": {
    "kind": "user",
    "methods": {},
    "version": 1
  }
}